{
  "abi": [
    {
      "inputs": [
        {
          "internalType": "address",
          "name": "_delegateCodeOrigin",
          "type": "address"
        },
        {
          "internalType": "contract IJB721TokenUriResolver",
          "name": "_tokenUriResolver",
          "type": "address"
        },
        {
          "internalType": "contract IDefifaGovernor",
          "name": "_governor",
          "type": "address"
        },
        {
          "internalType": "contract IJBController3_1",
          "name": "_controller",
          "type": "address"
        },
        {
          "internalType": "contract IJBDelegatesRegistry",
          "name": "_delegatesRegistry",
          "type": "address"
        },
        {
          "internalType": "address",
          "name": "_protocolFeeProjectTokenAccount",
          "type": "address"
        },
        {
          "internalType": "uint256",
          "name": "_ballkidzProjectId",
          "type": "uint256"
        },
        {
          "internalType": "address",
          "name": "_owner",
          "type": "address"
        }
      ],
      "stateMutability": "nonpayable",
      "type": "constructor"
    },
    {
      "inputs": [],
      "name": "CANT_FULFILL_YET",
      "type": "error"
    },
    {
      "inputs": [],
      "name": "GAME_OVER",
      "type": "error"
    },
    {
      "inputs": [],
      "name": "INCORRECT_DECIMAL_AMOUNT",
      "type": "error"
    },
    {
      "inputs": [],
      "name": "INVALID_FEE_PERCENT",
      "type": "error"
    },
    {
      "inputs": [],
      "name": "INVALID_GAME_CONFIGURATION",
      "type": "error"
    },
    {
      "inputs": [],
      "name": "PHASE_ALREADY_QUEUED",
      "type": "error"
    },
    {
      "inputs": [
        {
          "internalType": "uint256",
          "name": "prod1",
          "type": "uint256"
        },
        {
          "internalType": "uint256",
          "name": "denominator",
          "type": "uint256"
        }
      ],
      "name": "PRBMath__MulDivOverflow",
      "type": "error"
    },
    {
      "inputs": [],
      "name": "SPLITS_DONT_ADD_UP",
      "type": "error"
    },
    {
      "inputs": [],
      "name": "TERMINAL_NOT_FOUND",
      "type": "error"
    },
    {
      "inputs": [],
      "name": "UNEXPECTED_TERMINAL_CURRENCY",
      "type": "error"
    },
    {
      "anonymous": false,
      "inputs": [
        {
          "components": [
            {
              "internalType": "bool",
              "name": "preferClaimed",
              "type": "bool"
            },
            {
              "internalType": "bool",
              "name": "preferAddToBalance",
              "type": "bool"
            },
            {
              "internalType": "uint256",
              "name": "percent",
              "type": "uint256"
            },
            {
              "internalType": "uint256",
              "name": "projectId",
              "type": "uint256"
            },
            {
              "internalType": "address payable",
              "name": "beneficiary",
              "type": "address"
            },
            {
              "internalType": "uint256",
              "name": "lockedUntil",
              "type": "uint256"
            },
            {
              "internalType": "contract IJBSplitAllocator",
              "name": "allocator",
              "type": "address"
            }
          ],
          "indexed": false,
          "internalType": "struct JBSplit",
          "name": "split",
          "type": "tuple"
        },
        {
          "indexed": false,
          "internalType": "uint256",
          "name": "amount",
          "type": "uint256"
        },
        {
          "indexed": false,
          "internalType": "address",
          "name": "defaultBeneficiary",
          "type": "address"
        },
        {
          "indexed": false,
          "internalType": "address",
          "name": "caller",
          "type": "address"
        }
      ],
      "name": "DistributeToSplit",
      "type": "event"
    },
    {
      "anonymous": false,
      "inputs": [
        {
          "indexed": true,
          "internalType": "uint256",
          "name": "gameId",
          "type": "uint256"
        },
        {
          "indexed": true,
          "internalType": "contract IDefifaDelegate",
          "name": "delegate",
          "type": "address"
        },
        {
          "indexed": true,
          "internalType": "contract IDefifaGovernor",
          "name": "governor",
          "type": "address"
        },
        {
          "indexed": false,
          "internalType": "contract IJB721TokenUriResolver",
          "name": "tokenUriResolver",
          "type": "address"
        },
        {
          "indexed": false,
          "internalType": "address",
          "name": "caller",
          "type": "address"
        }
      ],
      "name": "LaunchGame",
      "type": "event"
    },
    {
      "anonymous": false,
      "inputs": [
        {
          "indexed": true,
          "internalType": "address",
          "name": "previousOwner",
          "type": "address"
        },
        {
          "indexed": true,
          "internalType": "address",
          "name": "newOwner",
          "type": "address"
        }
      ],
      "name": "OwnershipTransferred",
      "type": "event"
    },
    {
      "inputs": [],
      "name": "ballkidzProjectId",
      "outputs": [
        {
          "internalType": "uint256",
          "name": "",
          "type": "uint256"
        }
      ],
      "stateMutability": "view",
      "type": "function"
    },
    {
      "inputs": [
        {
          "internalType": "uint256",
          "name": "_percent",
          "type": "uint256"
        }
      ],
      "name": "changeFee",
      "outputs": [],
      "stateMutability": "nonpayable",
      "type": "function"
    },
    {
      "inputs": [],
      "name": "claimProtocolProjectToken",
      "outputs": [],
      "stateMutability": "nonpayable",
      "type": "function"
    },
    {
      "inputs": [],
      "name": "controller",
      "outputs": [
        {
          "internalType": "contract IJBController3_1",
          "name": "",
          "type": "address"
        }
      ],
      "stateMutability": "view",
      "type": "function"
    },
    {
      "inputs": [
        {
          "internalType": "uint256",
          "name": "_gameId",
          "type": "uint256"
        }
      ],
      "name": "currentGamePhaseOf",
      "outputs": [
        {
          "internalType": "enum DefifaGamePhase",
          "name": "",
          "type": "uint8"
        }
      ],
      "stateMutability": "view",
      "type": "function"
    },
    {
      "inputs": [
        {
          "internalType": "uint256",
          "name": "_gameId",
          "type": "uint256"
        }
      ],
      "name": "currentGamePotOf",
      "outputs": [
        {
          "internalType": "uint256",
          "name": "",
          "type": "uint256"
        },
        {
          "internalType": "address",
          "name": "",
          "type": "address"
        },
        {
          "internalType": "uint256",
          "name": "",
          "type": "uint256"
        }
      ],
      "stateMutability": "view",
      "type": "function"
    },
    {
      "inputs": [],
      "name": "delegateCodeOrigin",
      "outputs": [
        {
          "internalType": "address",
          "name": "",
          "type": "address"
        }
      ],
      "stateMutability": "view",
      "type": "function"
    },
    {
      "inputs": [],
      "name": "delegatesRegistry",
      "outputs": [
        {
          "internalType": "contract IJBDelegatesRegistry",
          "name": "",
          "type": "address"
        }
      ],
      "stateMutability": "view",
      "type": "function"
    },
    {
      "inputs": [],
      "name": "feeDivisor",
      "outputs": [
        {
          "internalType": "uint256",
          "name": "",
          "type": "uint256"
        }
      ],
      "stateMutability": "view",
      "type": "function"
    },
    {
      "inputs": [
        {
          "internalType": "uint256",
          "name": "_gameId",
          "type": "uint256"
        }
      ],
      "name": "fulfillCommitmentsOf",
      "outputs": [],
      "stateMutability": "nonpayable",
      "type": "function"
    },
    {
      "inputs": [],
      "name": "governor",
      "outputs": [
        {
          "internalType": "contract IDefifaGovernor",
          "name": "",
          "type": "address"
        }
      ],
      "stateMutability": "view",
      "type": "function"
    },
    {
      "inputs": [
        {
          "internalType": "uint256",
          "name": "",
          "type": "uint256"
        }
      ],
      "name": "hasFulfilledCommitments",
      "outputs": [
        {
          "internalType": "bool",
          "name": "",
          "type": "bool"
        }
      ],
      "stateMutability": "view",
      "type": "function"
    },
    {
      "inputs": [
        {
          "components": [
            {
              "internalType": "string",
              "name": "name",
              "type": "string"
            },
            {
              "components": [
                {
                  "internalType": "string",
                  "name": "content",
                  "type": "string"
                },
                {
                  "internalType": "uint256",
                  "name": "domain",
                  "type": "uint256"
                }
              ],
              "internalType": "struct JBProjectMetadata",
              "name": "projectMetadata",
              "type": "tuple"
            },
            {
              "internalType": "string",
              "name": "contractUri",
              "type": "string"
            },
            {
              "internalType": "string",
              "name": "baseUri",
              "type": "string"
            },
            {
              "components": [
                {
                  "internalType": "string",
                  "name": "name",
                  "type": "string"
                },
                {
                  "internalType": "uint80",
                  "name": "price",
                  "type": "uint80"
                },
                {
                  "internalType": "uint16",
                  "name": "reservedRate",
                  "type": "uint16"
                },
                {
                  "internalType": "address",
                  "name": "reservedTokenBeneficiary",
                  "type": "address"
                },
                {
                  "internalType": "bytes32",
                  "name": "encodedIPFSUri",
                  "type": "bytes32"
                },
                {
                  "internalType": "bool",
                  "name": "shouldUseReservedTokenBeneficiaryAsDefault",
                  "type": "bool"
                }
              ],
              "internalType": "struct DefifaTierParams[]",
              "name": "tiers",
              "type": "tuple[]"
            },
            {
              "internalType": "address",
              "name": "token",
              "type": "address"
            },
            {
              "internalType": "uint24",
              "name": "mintPeriodDuration",
              "type": "uint24"
            },
            {
              "internalType": "uint24",
              "name": "refundPeriodDuration",
              "type": "uint24"
            },
            {
              "internalType": "uint48",
              "name": "start",
              "type": "uint48"
            },
            {
              "components": [
                {
                  "internalType": "bool",
                  "name": "preferClaimed",
                  "type": "bool"
                },
                {
                  "internalType": "bool",
                  "name": "preferAddToBalance",
                  "type": "bool"
                },
                {
                  "internalType": "uint256",
                  "name": "percent",
                  "type": "uint256"
                },
                {
                  "internalType": "uint256",
                  "name": "projectId",
                  "type": "uint256"
                },
                {
                  "internalType": "address payable",
                  "name": "beneficiary",
                  "type": "address"
                },
                {
                  "internalType": "uint256",
                  "name": "lockedUntil",
                  "type": "uint256"
                },
                {
                  "internalType": "contract IJBSplitAllocator",
                  "name": "allocator",
                  "type": "address"
                }
              ],
              "internalType": "struct JBSplit[]",
              "name": "splits",
              "type": "tuple[]"
            },
            {
              "internalType": "address payable",
              "name": "ballkidzFeeProjectTokenAccount",
              "type": "address"
            },
            {
              "internalType": "contract IJBSplitAllocator",
              "name": "ballkidzFeeProjectTokenAllocator",
              "type": "address"
            },
            {
              "internalType": "uint256",
              "name": "attestationStartTime",
              "type": "uint256"
            },
            {
              "internalType": "uint256",
              "name": "attestationGracePeriod",
              "type": "uint256"
            },
            {
              "internalType": "address",
              "name": "defaultAttestationDelegate",
              "type": "address"
            },
            {
              "internalType": "contract IJB721TokenUriResolver",
              "name": "defaultTokenUriResolver",
              "type": "address"
            },
            {
              "internalType": "contract IJBPaymentTerminal",
              "name": "terminal",
              "type": "address"
            },
            {
              "internalType": "contract IJBTiered721DelegateStore",
              "name": "store",
              "type": "address"
            }
          ],
          "internalType": "struct DefifaLaunchProjectData",
          "name": "_launchProjectData",
          "type": "tuple"
        }
      ],
      "name": "launchGameWith",
      "outputs": [
        {
          "internalType": "uint256",
          "name": "gameId",
          "type": "uint256"
        }
      ],
      "stateMutability": "nonpayable",
      "type": "function"
    },
    {
      "inputs": [
        {
          "internalType": "uint256",
          "name": "_gameId",
          "type": "uint256"
        }
      ],
      "name": "nextPhaseNeedsQueueing",
      "outputs": [
        {
          "internalType": "bool",
          "name": "",
          "type": "bool"
        }
      ],
      "stateMutability": "view",
      "type": "function"
    },
    {
      "inputs": [
        {
          "internalType": "address",
          "name": "",
          "type": "address"
        },
        {
          "internalType": "address",
          "name": "",
          "type": "address"
        },
        {
          "internalType": "uint256",
          "name": "",
          "type": "uint256"
        },
        {
          "internalType": "bytes",
          "name": "",
          "type": "bytes"
        }
      ],
      "name": "onERC721Received",
      "outputs": [
        {
          "internalType": "bytes4",
          "name": "",
          "type": "bytes4"
        }
      ],
      "stateMutability": "pure",
      "type": "function"
    },
    {
      "inputs": [],
      "name": "owner",
      "outputs": [
        {
          "internalType": "address",
          "name": "",
          "type": "address"
        }
      ],
      "stateMutability": "view",
      "type": "function"
    },
    {
      "inputs": [],
      "name": "protocolFeeProjectTokenAccount",
      "outputs": [
        {
          "internalType": "address",
          "name": "",
          "type": "address"
        }
      ],
      "stateMutability": "view",
      "type": "function"
    },
    {
      "inputs": [
        {
          "internalType": "uint256",
          "name": "_gameId",
          "type": "uint256"
        }
      ],
      "name": "queueNextPhaseOf",
      "outputs": [
        {
          "internalType": "uint256",
          "name": "configuration",
          "type": "uint256"
        }
      ],
      "stateMutability": "nonpayable",
      "type": "function"
    },
    {
      "inputs": [],
      "name": "renounceOwnership",
      "outputs": [],
      "stateMutability": "nonpayable",
      "type": "function"
    },
    {
      "inputs": [],
      "name": "splitGroup",
      "outputs": [
        {
          "internalType": "uint256",
          "name": "",
          "type": "uint256"
        }
      ],
      "stateMutability": "view",
      "type": "function"
    },
    {
      "inputs": [
        {
          "internalType": "uint256",
          "name": "_gameId",
          "type": "uint256"
        }
      ],
      "name": "timesFor",
      "outputs": [
        {
          "internalType": "uint48",
          "name": "",
          "type": "uint48"
        },
        {
          "internalType": "uint24",
          "name": "",
          "type": "uint24"
        },
        {
          "internalType": "uint24",
          "name": "",
          "type": "uint24"
        }
      ],
      "stateMutability": "view",
      "type": "function"
    },
    {
      "inputs": [
        {
          "internalType": "uint256",
          "name": "_gameId",
          "type": "uint256"
        }
      ],
      "name": "tokenOf",
      "outputs": [
        {
          "internalType": "address",
          "name": "",
          "type": "address"
        }
      ],
      "stateMutability": "view",
      "type": "function"
    },
    {
      "inputs": [],
      "name": "tokenUriResolver",
      "outputs": [
        {
          "internalType": "contract IJB721TokenUriResolver",
          "name": "",
          "type": "address"
        }
      ],
      "stateMutability": "view",
      "type": "function"
    },
    {
      "inputs": [
        {
          "internalType": "address",
          "name": "newOwner",
          "type": "address"
        }
      ],
      "name": "transferOwnership",
      "outputs": [],
      "stateMutability": "nonpayable",
      "type": "function"
    }
  ],
  "bytecode": {
    "object": "0x61018034620002045762005a7238819003601f8101601f191683016001600160401b03811184821017620002095783928291604052833961010092839181010312620002045762000050816200021f565b60208201516001600160a01b0391828216820362000204576040840151908382168203620002045760608501519484861686036200020457608081015194851685036200020457620000f692620000aa60a083016200021f565b94620000be60e060c085015194016200021f565b93620000ca3362000234565b601460045560c05260e052875261012095865261014093845261016094855260a0523060805262000234565b604051926157f694856200027c8639608051858181610639015281816110170152613f05015260a051858181610fa601528181611106015281816127410152613ed8015260c05185818161120f015261280d015260e0518581816102b40152611e150152518481816119b7015261278401525183818161014801528181610339015281816106d101528181610d9901528181611089015281816112a40152818161136e015281816119120152818161244601528181612cea0152818161302a01528181613e7e01528181613f850152614fa8015251828181610454015281816123de015281816142e70152818161492001528181614ab10152614b840152518181816102f80152611a950152f35b600080fd5b634e487b7160e01b600052604160045260246000fd5b51906001600160a01b03821682036200020457565b600080546001600160a01b039283166001600160a01b03198216811783559216907f8be0079c531659141344cd1fd0a4f28419497f9722a3daafe3b4186f6b6457e09080a356fe608080604052600436101561001357600080fd5b600090813560e01c90816306b552b5146127ee575080630715610a146127a85780630c340a24146127645780630d75b3aa14612729578063150b7a021461269d5780631c069dbb146126765780633af76f34146124025780633f3090d9146123be57806363bf482e146109aa5780636a1db1bf14610938578063715018a6146108c657806381312a141461068b578063850976b21461065c578063859bb4b2146106215780638da5cb5b146105fb5780639a36f932146105dd578063b07925d314610563578063b6674cde14610543578063ca449a251461031c578063d574ff04146102d8578063e131fc0c14610294578063ea78803f14610261578063f2fde38b1461016f5763f77c47911461012957600080fd5b3461016c578060031936011261016c5760206040516001600160a01b037f0000000000000000000000000000000000000000000000000000000000000000168152f35b80fd5b503461016c57602060031936011261016c57610189612831565b610191615235565b6001600160a01b038091169081156101f757600054827fffffffffffffffffffffffff0000000000000000000000000000000000000000821617600055167f8be0079c531659141344cd1fd0a4f28419497f9722a3daafe3b4186f6b6457e0600080a380f35b608460405162461bcd60e51b815260206004820152602660248201527f4f776e61626c653a206e6577206f776e657220697320746865207a65726f206160448201527f64647265737300000000000000000000000000000000000000000000000000006064820152fd5b503461016c57602060031936011261016c576001600160a01b036040602092600435815260018452205416604051908152f35b503461016c578060031936011261016c5760206040516001600160a01b037f0000000000000000000000000000000000000000000000000000000000000000168152f35b503461016c578060031936011261016c5760206040516001600160a01b037f0000000000000000000000000000000000000000000000000000000000000000168152f35b503461016c578060031936011261016c57806001600160a01b03807f000000000000000000000000000000000000000000000000000000000000000016906040517f6193063000000000000000000000000000000000000000000000000000000000928382526020918281600481855afa9081156105385783918591889161051b575b50169460046040518094819382525afa9081156104e3578391839187916104ee575b506044604051809481937f5287af3700000000000000000000000000000000000000000000000000000000835230600484015260016024840152165afa9182156104e35785926104ad575b5050823b156104a857608484928360405195869485937fac689bcd000000000000000000000000000000000000000000000000000000008552306004860152600160248601527f000000000000000000000000000000000000000000000000000000000000000016604485015260648401525af1801561049d5761048d5750f35b610496906128fe565b61016c5780f35b6040513d84823e3d90fd5b505050fd5b8195508092503d83116104dc575b6104c58183612967565b810103126104d757839251388061040c565b600080fd5b503d6104bb565b6040513d87823e3d90fd5b61050e9150823d8411610514575b6105068183612967565b810190612a22565b386103c1565b503d6104fc565b6105329150833d8511610514576105068183612967565b3861039f565b6040513d88823e3d90fd5b503461016c57602060031936011261016c57610560600435613df4565b80f35b503461016c57602060031936011261016c57604060609160043581526001602052208160405191610593836128e2565b546001600160a01b038116835265ffffffffffff8160a01c169283602082015262ffffff8260d01c169182604083015260e81c928391015260405192835260208301526040820152f35b503461016c578060031936011261016c576020600454604051908152f35b503461016c578060031936011261016c576001600160a01b036020915416604051908152f35b503461016c578060031936011261016c5760206040517f00000000000000000000000000000000000000000000000000000000000000008152f35b503461016c57602060031936011261016c5760ff60406020926004358152600584522054166040519015158152f35b503461016c576020908160031936011261016c576040517f557e715500000000000000000000000000000000000000000000000000000000808252916001600160a01b037f0000000000000000000000000000000000000000000000000000000000000000811660048035908790869081855afa9485156108bb57849561089a575b5082939495604051967f43a266c200000000000000000000000000000000000000000000000000000000885282600489015287602481610120988994165afa96871561053857908891879861085a575b5060046040518095819382525afa9182156104e357908492918692610838575b5060249060405194859384927f5c5500780000000000000000000000000000000000000000000000000000000084526004840152165afa92831561082c5780936107f0575b505050826080830151151592836107df575b506040518315158152f35b8101519101511490503882816107d4565b90918093503d8411610825575b6108078184612967565b8201928284031261016c57509061081d91612a41565b3880806107c2565b503d6107fd565b604051903d90823e3d90fd5b602491925061085390893d8b11610514576105068183612967565b919061077d565b91509650843d8611610893575b6108718183612967565b810190858183031261088f57889161088891612a41565b963861075d565b8680fd5b503d610867565b839495506108b490883d8a11610514576105068183612967565b949361070d565b6040513d86823e3d90fd5b503461016c578060031936011261016c576108df615235565b60006001600160a01b0381547fffffffffffffffffffffffff000000000000000000000000000000000000000081168355167f8be0079c531659141344cd1fd0a4f28419497f9722a3daafe3b4186f6b6457e08280a380f35b503461016c57602060031936011261016c57600435610955615235565b600a811161098057801561096c5760640460045580f35b602482634e487b7160e01b81526012600452fd5b60046040517f42c9b523000000000000000000000000000000000000000000000000000000008152fd5b503461016c57602060031936011261016c5767ffffffffffffffff6004351161016c576102406003196004353603011261016c576040516109ea8161285b565b6004356004013567ffffffffffffffff8111611b8357610a119060043691813501016129a6565b81526024600435013567ffffffffffffffff8111611b83576004350160406003198236030112611b835760405190610a488261288e565b60048101359067ffffffffffffffff8211611b7f57610a6f602492600436918401016129a6565b83520135602082015260208201526044600435013567ffffffffffffffff8111611b8357610aa49060043691813501016129a6565b60408201526064600435013567ffffffffffffffff8111611b8357610ad09060043691813501016129a6565b60608201526084600435013567ffffffffffffffff8111611b83573660238260043501011215611b8357600481813501013590610b0c826129ed565b91610b1a6040519384612967565b80835260208301913660248360051b8360043501010111611c1f576024816004350101925b60248360051b83600435010101841061229657505050506080820152610b6960a460043501612847565b60a0820152610b7c60c460043501612a12565b60c0820152610b8f60e460043501612a12565b60e0820152600435610104013565ffffffffffff81169003611fd157600435610104810135610100830152610124013567ffffffffffffffff8111611b83573660238260043501011215611b8357600481813501013590610bef826129ed565b91610bfd6040519384612967565b808352602083019136602460e084028360043501010111611c1f57916024836004350101925b602460e084028260043501010184106122105750505050610120820152610c4f61014460043501612847565b610140820152610c6461016460043501612847565b6101608201526004356101848101356101808301526101a48101356101a0830152610c92906101c401612847565b6101c08201526004356101e401356001600160a01b0381169003611fd1576004356101e48101356101e083015261020401356001600160a01b0381169003611fd15760043561020481013561020083015261022401356001600160a01b0381169003611fd157600435610224013561022082015261010081015165ffffffffffff16806121a4575065ffffffffffff610d4562ffffff610d388160c08601511642612e84565b9060e08501511690612e84565b166101008201525b62ffffff60c082015116158015612169575b61213f576040517f8b79543c0000000000000000000000000000000000000000000000000000000081526020816004816001600160a01b037f0000000000000000000000000000000000000000000000000000000000000000165afa908115611ddb5783916120fa575b509060206001600160a01b03926004604051809581937f06661abd000000000000000000000000000000000000000000000000000000008352165afa918215611ddb5783926120c6575b506001820182116120b2576001600160a01b0360a08201511662ffffff60c08301511662ffffff60e08401511665ffffffffffff610100850151169160405193610e5c856128e2565b845260208401928352604084019081526060840191825260018601875260016020527fffffff00000000000000000000000000000000000000000000000000000000007cffffff000000000000000000000000000000000000000000000000000079ffffffffffff00000000000000000000000000000000000000006001600160a01b0360408b20975116955160a01b16925160d01b16925160e81b16921717179055600454801561209e576101208201515160018101811161208a57610f25600182016129ed565b91610f336040519384612967565b600182018352601f19610f48600184016129ed565b01865b818110612049575050855b82811061201a575090610feb916001600160a01b03610140860151166001600160a01b03610160870151169060405192610f8f846128c6565b60018452896020850152633b9aca000460408401527f0000000000000000000000000000000000000000000000000000000000000000606084015260808301528760a083015260c0820152610fe48285612ed7565b5282612ed7565b5060405190610ff98261288e565b60018252845b60208110611ff65750604051906110158261288e565b7f00000000000000000000000000000000000000000000000000000000000000008252602082015261104682612eb4565b5261105081612eb4565b5083604051917f2bdfe0040000000000000000000000000000000000000000000000000000000083526020836004816001600160a01b037f0000000000000000000000000000000000000000000000000000000000000000165afa92831561049d578293611fd5575b506001600160a01b0383163b15611fd1576001600160a01b039261114491836040519586809581947ff2da44b60000000000000000000000000000000000000000000000000000000083527f0000000000000000000000000000000000000000000000000000000000000000600484015260018c016024840152606060448401526064830190612eeb565b0393165af180156108bb57611fbe575b50608081015151611164816129ed565b906111726040519283612967565b80825261117e816129ed565b855b601f1982018110611f5d575050608083015151906111b66111a0836129ed565b926111ae6040519485612967565b8084526129ed565b865b601f1982018110611f475750508560a06040516111d4816128aa565b606081528260208201528260408201528260608201528260808201520152855b818110611e7e5750506e5af43d82803e903d91602b57fd5bf37f0000000000000000000000000000000000000000000000000000000000000000763d602d80600a3d3981f3363d3d373d3d3d363d7300000062ffffff8260881c1617875260781b176020526001600160a01b036037600987f016918215611e3a576101e08401516001600160a01b03168015611e1257915b604051916331070bc960e21b83526020836004816001600160a01b037f0000000000000000000000000000000000000000000000000000000000000000165afa928315611e07578893611de6575b508551886112e460018a016155a7565b611337602760405180937f444546494641200000000000000000000000000000000000000000000000000060208301526113278151809260208686019101612fd6565b8101036007810184520182612967565b604051907f557e71550000000000000000000000000000000000000000000000000000000082526020826004816001600160a01b037f0000000000000000000000000000000000000000000000000000000000000000165afa8015611ddb578a928491611dbc575b5060608301519060408401519260206001600160a01b0360a0816102008901511697015116602460405180988193631982d67960e01b835260048301525afa948515610538578d9695611d85575b506001600160a01b036101c0816102208901511697015116968c3b15611d8157908f9a918f9a99989796959493926040519b7f3900c6f9000000000000000000000000000000000000000000000000000000008d5260010160048d01526001600160a01b031660248c015260448b016101e090526101e48b0161146f91612ff9565b8a81036003190160648c015261148491612ff9565b906001600160a01b031660848a01528881036003190160a48a01526114a891612ff9565b6001600160a01b038a1660c48901528781036003190160e48901526114cc91612ff9565b868103600319016101048801528451908181526020019460200190885b818110611cbf5750505065ffffffffffff1661012486015261014485015230610164850152306101848501526101a4840152600319838203016101c4840152815180825260208201916020808360051b83010194019286915b838310611c8c57505050505081808492038183885af1801561049d57611c78575b50506103e060246040516115768161288e565b60018152602036818301376001600160a01b036102008701511661159982612eb4565b526118a2602087015161188f62ffffff60c08a01511691604051926115bd846128e2565b83528b60208401528b60408401528b60608401526040516115dd8161292f565b8c81528c60208201528c604082015261160b8d604051906115fd8261288e565b815260016020820152615210565b604051916116188361285b565b82528d602083015261271080604084015260608301528d60808301528d60a08301528d60c08301528d60e08301528d6101008301528d6101208301528d6101408301528d6101608301528d6101808301528d6101a083015260016101c083015260016101e08301528a61020083015261022082015265ffffffffffff6116c08c62ffffff60e06116b685610100850151168360c08601511690614ed2565b9201511690614ed2565b611876604051936116d08561294b565b6000855261176d604051986116e48a61294b565b60008a526040519d8e9d8e7fb3c5267300000000000000000000000000000000000000000000000000000000815230600482015201528c61040460206117388b5160406103e4860152610424850190612ff9565b9a0151910152805160448e0152602081015160648e0152604081015160848e0152606001516001600160a01b031660a48d0152565b80518051151560c48d0152602080820151151560e48e015260409182015115156101048e01528201516101248d01528101516101448c015260608101516101648c0152608081015115156101848c015260a081015115156101a48c015260c081015115156101c48c015260e081015115156101e48c015261010081015115156102048c015261012081015115156102248c015261014081015115156102448c015261016081015115156102648c015261018081015115156102848c01526101a081015115156102a48c01526101c081015115156102c48c01526101e081015115156102e48c01526102008101516001600160a01b03166103048c015261022001516103248b0152565b1661034488015260031987830301610364880152612eeb565b9060031985830301610384860152614eea565b600319838203016103a484015260208083519283815201920190895b818110611c5657505050906040827f446566696661206d696e742070686173652e00000000000000000000000000006020848196039260031984016103c48701526012815201520181896001600160a01b037f0000000000000000000000000000000000000000000000000000000000000000165af1801561053857611c2b575b5061020083015160a08401516040517fdf21a7dd0000000000000000000000000000000000000000000000000000000081526001600160a01b0391821660048201526001870160248201529160209183916044918391165afa908115610538578691611bed575b5015611bc357846001600160a01b037f000000000000000000000000000000000000000000000000000000000000000016936101a061018082015191015190853b15611b83576040517fc543882f00000000000000000000000000000000000000000000000000000000815260018801600482015260248101919091526044810191909152818160648183895af1801561049d57611baf575b5050813b15611b7f57846040517ff2fde38b000000000000000000000000000000000000000000000000000000008152846004820152818160248183885af1801561049d57611b9b575b50506001600160a01b037f0000000000000000000000000000000000000000000000000000000000000000166002546000198114611b875790600187920180600255813b15611b83576040517f5bcfd212000000000000000000000000000000000000000000000000000000008152306004820152602481019190915291908290604490829084905af1801561053857611b6b575b50602094506001600160a01b036040519116815233858201527f3082991f3dda023098e5849ea3903c6fbfd657dc6f9232f5eb81ad8a7ba161d660406001860192a4600160405191018152f35b611b7586916128fe565b611b7f5784611b1e565b8480fd5b8280fd5b602487634e487b7160e01b81526011600452fd5b611ba4906128fe565b611b7f578438611a89565b611bb8906128fe565b611b7f578438611a3f565b60046040517f3727b396000000000000000000000000000000000000000000000000000000008152fd5b90506020813d602011611c23575b81611c0860209383612967565b81010312611c1f57611c1990612ad4565b386119a6565b8580fd5b3d9150611bfb565b602090813d8311611c4f575b611c418183612967565b810103126104d7573861193f565b503d611c37565b82516001600160a01b03168452859450602093840193909201916001016118be565b611c81906128fe565b611b7f578438611563565b91939596509193602080611cac83601f1986600196030187528951612ff9565b97019301930190928b9695949293611542565b91969798509192939460206101606001926101408a516cffffffffffffffffffffffffff815116835263ffffffff80868301511686850152604082015116604084015261ffff60608201511660608401526001600160a01b03608082015116608084015260a081015160a084015262ffffff60c08201511660c084015260e0810151151560e084015261010081015115156101008401526101208101511515610120840152015115156101408201520197019101918d989796959493926114e9565b8f80fd5b955093506020853d602011611db4575b81611da260209383612967565b810103126104d7578b945193386113ed565b3d9150611d95565b611dd5915060203d602011610514576105068183612967565b3861139f565b6040513d85823e3d90fd5b611e0091935060203d602011610514576105068183612967565b91386112d4565b6040513d8a823e3d90fd5b507f000000000000000000000000000000000000000000000000000000000000000091611286565b606460405162461bcd60e51b815260206004820152601660248201527f455243313136373a20637265617465206661696c6564000000000000000000006044820152fd5b80611e8f6001926080880151612ed7565b5169ffffffffffffffffffff60208201511661ffff6040830151166001600160a01b0360608401511660808401519060a085015115159260405194611ed386612912565b8552633b9ac9ff60208601528760408601526060850152608084015260a08301528a60c08301528a60e08301526101008201528961012082015283610140820152611f1e8388612ed7565b52611f298287612ed7565b5051611f358286612ed7565b52611f408185612ed7565b50016111f4565b602081606082601f1994880101520190506111b8565b6020601f1991604051611f6f81612912565b89815289838201528960408201528960608201528960808201528960a08201528960c08201528960e0820152896101008201528961012082015289610140820152828288010152019050611180565b611fca909391936128fe565b9138611154565b5080fd5b611fef91935060203d602011610514576105068183612967565b91386110b9565b6020906040516120058161288e565b87815260608382015282828601015201610fff565b8061202c600192610120880151612ed7565b516120378287612ed7565b526120428186612ed7565b5001610f56565b602090604051612058816128c6565b89815289838201528960408201528960608201528960808201528960a08201528960c082015282828801015201610f4b565b602485634e487b7160e01b81526011600452fd5b602484634e487b7160e01b81526012600452fd5b602483634e487b7160e01b81526011600452fd5b9091506020813d6020116120f2575b816120e260209383612967565b81010312611b8357519038610e13565b3d91506120d5565b90506020813d602011612137575b8161211560209383612967565b81010312611b835751906001600160a01b0382168203611b8357906020610dc9565b3d9150612108565b60046040517f74f88142000000000000000000000000000000000000000000000000000000008152fd5b5065ffffffffffff6101008201511661219e61218e62ffffff60e08501511642612e84565b62ffffff60c08501511690612e84565b11610d5f565b62ffffff908160c0840151161590816121f7575b506121c4575b50610d4d565b6121eb65ffffffffffff610100840151166121e58360e08601511642612e84565b90612ea7565b1660c0820152386121be565b90506122098260e08501511642612e84565b10386121b8565b60e08436031261088f5760e080602060249460405161222e816128c6565b61223789612a05565b8152612244838a01612a05565b83820152604089013560408201526060890135606082015261226860808a01612847565b608082015260a089013560a082015261228360c08a01612847565b60c0820152815201950194925050610c23565b833567ffffffffffffffff81116123ba5760c07fffffffffffffffffffffffffffffffffffffffffffffffffffffffffffffffdc82856004350101360301126123ba57604051906122e6826128aa565b602481856004350101013567ffffffffffffffff81116123b65761231690602436918488600435010101016129a6565b8252600435840181016044013569ffffffffffffffffffff811690036123b25760043584018101604481013560208401526064013561ffff811690036123b2576024926020926123a060c484606487968a6004350101013560408501526123856084828b600435010101612847565b606085015260043589010160a4810135608085015201612a05565b60a08201528152019401939050610b3f565b8880fd5b8980fd5b8780fd5b503461016c578060031936011261016c5760206040516001600160a01b037f0000000000000000000000000000000000000000000000000000000000000000168152f35b503461016c57602080600319360112611fd15760043590818352600181526001600160a01b039081604085205416906040516331070bc960e21b81528181600481877f0000000000000000000000000000000000000000000000000000000000000000165afa908115610538578691612659575b50604051630862026560e41b8152600481018690526001600160a01b03841660248201529082908290604490829088165afa8015610538578491879161263c575b5016936040517f975057e70000000000000000000000000000000000000000000000000000000081528281600481895afa8015612631578392612548928992612612575b506040519687809481937fd49031c00000000000000000000000000000000000000000000000000000000083528b60048401602090939291936001600160a01b0360408201951681520152565b0392165afa9283156104e35785936125e3575b508060049394604051948580927f313ce5670000000000000000000000000000000000000000000000000000000082525afa9283156104e35785936125b0575b50606094506040519384528301526040820152f35b9080935081813d83116125dc575b6125c88183612967565b81010312611b7f576060945051913861259b565b503d6125be565b92508083813d831161260b575b6125fa8183612967565b81010312611b7f579151918061255b565b503d6125f0565b61262a919250843d8611610514576105068183612967565b90386124fb565b6040513d89823e3d90fd5b6126539150833d8511610514576105068183612967565b386124b7565b6126709150823d8411610514576105068183612967565b38612476565b503461016c57602060031936011261016c57602061269560043561301e565b604051908152f35b503461016c57608060031936011261016c576126b7612831565b506024356001600160a01b0381160361016c5760643567ffffffffffffffff808211611b835736602383011215611b83578160040135908111611b83573691016024011161016c5760206040517f150b7a02000000000000000000000000000000000000000000000000000000008152f35b503461016c578060031936011261016c5760206040517f00000000000000000000000000000000000000000000000000000000000000008152f35b503461016c578060031936011261016c5760206040516001600160a01b037f0000000000000000000000000000000000000000000000000000000000000000168152f35b503461016c57602060031936011261016c576127c5600435612ca8565b6040519060078110156127da57602092508152f35b602483634e487b7160e01b81526021600452fd5b905034611fd15781600319360112611fd1576020906001600160a01b037f0000000000000000000000000000000000000000000000000000000000000000168152f35b600435906001600160a01b03821682036104d757565b35906001600160a01b03821682036104d757565b610240810190811067ffffffffffffffff82111761287857604052565b634e487b7160e01b600052604160045260246000fd5b6040810190811067ffffffffffffffff82111761287857604052565b60c0810190811067ffffffffffffffff82111761287857604052565b60e0810190811067ffffffffffffffff82111761287857604052565b6080810190811067ffffffffffffffff82111761287857604052565b67ffffffffffffffff811161287857604052565b610160810190811067ffffffffffffffff82111761287857604052565b6060810190811067ffffffffffffffff82111761287857604052565b6020810190811067ffffffffffffffff82111761287857604052565b90601f601f19910116810190811067ffffffffffffffff82111761287857604052565b67ffffffffffffffff811161287857601f01601f191660200190565b81601f820112156104d7578035906129bd8261298a565b926129cb6040519485612967565b828452602083830101116104d757816000926020809301838601378301015290565b67ffffffffffffffff81116128785760051b60200190565b359081151582036104d757565b359062ffffff821682036104d757565b908160209103126104d757516001600160a01b03811681036104d75790565b80929161012091829103126104d75760405190810181811067ffffffffffffffff821117612878576040528092805182526020810151602083015260408101516040830152606081015160608301526080810151608083015260a081015160a083015260c081015160c083015260e08101516001600160a01b03811681036104d75760e083015261010080910151910152565b519081151582036104d757565b80820392916103a084126104d757612b1a7ffffffffffffffffffffffffffffffffffffffffffffffffffffffffffffffee09183612a41565b9301906102808083126104d757606060405193612b368561285b565b126104d757612be791604051612b4b8161292f565b61012090612b5a828401612ad4565b815261014090612b6b828501612ad4565b602082015261016090612b7f828601612ad4565b604082015287526101808085015160208901526101a0918286015160408a01526101c0938487015160608b01526101e095612bbb878901612ad4565b60808c0152612c18610200998c60a0612bd58d8d01612ad4565b9101528c60c06102209d8e8d01612ad4565b9101528c60e0612bfa6102408d01612ad4565b9101528c610100612c0e6102608d01612ad4565b9101528901612ad4565b908b0152612c296102a08801612ad4565b908a0152612c3a6102c08701612ad4565b90890152612c4b6102e08601612ad4565b90880152612c5c6103008501612ad4565b90870152612c6d6103208401612ad4565b90860152612c7e6103408301612ad4565b908501526103608101516001600160a01b03811681036104d7576103809285015201519082015290565b604080517f8776c4990000000000000000000000000000000000000000000000000000000081528260048201526103a0906001600160a01b03938282602481887f0000000000000000000000000000000000000000000000000000000000000000165afa918215612e79576000938493612e45575b505082518015612e3a57600114612e3057806000526020926003845260ff856000205416612e2557612d4f8183614f5e565b612e1a57516002149081612e01575b50612df85760049361020083920151168351948580927fa8c15f4a0000000000000000000000000000000000000000000000000000000082525afa918215612dee5750600091612dba575b509050612db557600390565b600490565b82813d8311612de7575b612dce8183612967565b8101031261016c5750612de090612ad4565b8038612da9565b503d612dc4565b513d6000823e3d90fd5b50505050600290565b905060005260018252826000205460e81c151538612d5e565b505050505050600590565b505050505050600690565b5050505050600190565b505050505050600090565b8091929450612e699350903d10612e72575b612e618183612967565b810190612ae1565b90913880612d1d565b503d612e57565b84513d6000823e3d90fd5b91908201809211612e9157565b634e487b7160e01b600052601160045260246000fd5b91908203918211612e9157565b805115612ec15760200190565b634e487b7160e01b600052603260045260246000fd5b8051821015612ec15760209160051b010190565b90815180825260208092019182818360051b8501950193600080925b858410612f18575050505050505090565b9091929387828297989903855288518260606040938285820194805183520151948382015284518094520192019085905b808210612f69575050509080600192990194019401929594939190612f07565b919360e084612fc860019496885160c0908051151583526020810151151560208401526040810151604084015260608101516060840152816001600160a01b039182608082015116608086015260a081015160a0860152015116910152565b019401920188939291612f49565b60005b838110612fe95750506000910152565b8181015183820152602001612fd9565b90601f19601f60209361301781518092818752878088019101612fd6565b0116010190565b6001600160a01b0390817f0000000000000000000000000000000000000000000000000000000000000000166040918251917f8776c499000000000000000000000000000000000000000000000000000000008352600482818501526103a09560249680868981875afa908115613d93576000968792613d71575b50856000526020966003885260ff8960002054168015613d65575b613d3d5787878a6130c58483614f5e565b6139fa57915050517f12b37b14000000000000000000000000000000000000000000000000000000008152878682015282818c818a5afa9081156139ef576000916139d1575b508880830151910151036139a95791879695949391899360018091511480613992575b1561348a5790889291846102008094015116896000528185528660002095875196613158886128e2565b5490811687528060a01c65ffffffffffff16868801528060d01c62ffffff168888015260e81c606081970152865195613190876128e2565b8652600085870181905287870181905260608701528651936131b18561292f565b60008086528686018190528886015287516131cb8161288e565b6000815283878201526131dd90615210565b928851956131ea8761285b565b865286860160009052612710808a880152606087015280608087015260a086016000905260c086016000905260e08601600090526101008601600090526101208601600090526101408601600090526101608601600090526101808601600090526101a0860160009052806101c08701526101e08601528401526102208301528451916132768361294b565b600083528551946132868661294b565b6000865286519d8e9a8b9963175b7be560e31b8b528a015288016132d0916001600160a01b0360608092805185526020810151602086015260408101516040860152015116910152565b80518051151560a4890152602080820151151560c48a0152604091820151151560e48a015282015161010489015281015161012488015260608101516101448801526080810151151561016488015260a0810151151561018488015260c081015115156101a488015260e081015115156101c488015261010081015115156101e488015261012081015115156102048801526101408101511515610224880152610160810151151561024488015261018081015115156102648801526101a081015115156102848801526101c081015115156102a48801526101e081015115156102c48801526102008101516001600160a01b03166102e488015261022001516103048701526103248601600090526103448601526103a485016133f391612eeb565b9160031992838682030161036487015261340c91614eea565b84810392830161038486015260148152017f44656669666120726566756e642070686173652e000000000000000000000000905201915a90600091f1918215612dee575060009161345e575b50905090565b82813d8311613483575b6134728183612967565b8101031261016c5750518038613458565b503d613468565b9192949596975092508361020080930151169387600052818952808a6000205416908a516331070bc960e21b81528a8189818c5afa908115613968578383928c8f958f946135119c9b9a9998978e91600095613973575b50519c8d9586948593630862026560e41b855284019092916001600160a01b036020916040840195845216910152565b0392165afa96871561396857600097613949575b508c908c978c8951996135378b61288e565b868b526000905b8282106139035750505016918b8d518093631982d67960e01b8252838c83015281865afa9182156138f857918d979593918d9c9b9a999795936000926138ad575b50908c969594939291895192613594846128aa565b835287830152600089830181905260608301527cffffffffffffffffffffffffffffffffffffffffffffffffffffffffff608083015260a08201526135d887612eb4565b526135e286612eb4565b508651936135ef856128e2565b600080865286860181905288860181905260608601528751926136118461292f565b600080855287850181905289850152885161362b8161288e565b60008082528882015261363d90615210565b9289519461364a8661285b565b855287850160009052612710808b870152606086015280608086015260a085016000905260c085016000905260e08501600090526101008501600090526101208501600090526101408501600090526101608501600090526101808501600090526101a0850160009052806101c08601526101e08501528301526102208201528551926136d68461294b565b6000845286519d8e9a8b9963175b7be560e31b8b528a01528801613720916001600160a01b0360608092805185526020810151602086015260408101516040860152015116910152565b80518051151560a4890152602080820151151560c48a0152604091820151151560e48a015282015161010489015281015161012488015260608101516101448801526080810151151561016488015260a0810151151561018488015260c081015115156101a488015260e081015115156101c488015261010081015115156101e488015261012081015115156102048801526101408101511515610224880152610160810151151561024488015261018081015115156102648801526101a081015115156102848801526101c081015115156102a48801526101e081015115156102c48801526102008101516001600160a01b03166102e488015261022001516103048701526103248601600090526103448601526103a4850161384391612eeb565b9160031992838682030161036487015261385c91614eea565b84810392830161038486015260158152017f4465666966612073636f72696e672070686173652e0000000000000000000000905201915a90600091f1918215612dee575060009161345e5750905090565b8093959799508d919496989a9b9c9d3d83116138f1575b6138ce8183612967565b8101031261016c5750928b9a99989795928b95928e98955191929394959661357f565b503d6138c4565b8d513d6000823e3d90fd5b9091929394506000815191613917836128aa565b81835281858401528201526000606082015260006080820152600060a082015282828c01015201908c8f93928f61353e565b6139619197508b3d8d11610514576105068183612967565b9538613525565b8c513d6000823e3d90fd5b61398b919550873d8911610514576105068183612967565b93386134e1565b5087600052808952846000205460e81c151561312e565b8489517f11f43385000000000000000000000000000000000000000000000000000000008152fd5b6139e89150833d8511612e7257612e618183612967565b503861310b565b8a513d6000823e3d90fd5b939096949250819795610200809401511690845193613a18856128e2565b60008086528486018190528686018190526060860152855192613a3a8461292f565b6000808552858501819052878501528651613a548161288e565b60008152600186820152613a6790615210565b91875194613a748661285b565b85528585016000905261271080898701526060860152608085016001905260a085016000905260c085016000905260e08501600090526101008501600090526101208501600090526101408501600090526101608501600090526101808501600090526101a08501600090526101c08501600190526101e0850160019052840152610220830152845191613b078361294b565b60008352855194613b178661294b565b6000865286519e8f9a8b9963175b7be560e31b8b528a01528801613b61916001600160a01b0360608092805185526020810151602086015260408101516040860152015116910152565b80518051151560a4890152602080820151151560c48a0152604091820151151560e48a015282015161010489015281015161012488015260608101516101448801526080810151151561016488015260a0810151151561018488015260c081015115156101a488015260e081015115156101c488015261010081015115156101e488015261012081015115156102048801526101408101511515610224880152610160810151151561024488015261018081015115156102648801526101a081015115156102848801526101c081015115156102a48801526101e081015115156102c48801526102008101516001600160a01b03166102e488015261022001516103048701526103248601600090526103448601526103a48501613c8491612eeb565b91600319928386820301610364870152613c9d91614eea565b84810392830161038486015260128152017f446566696661206e6f20636f6e746573742e0000000000000000000000000000905201915a90600091f1938415613d3257600094613d02575b509060039160005252600020600160ff1982541617905590565b90938282813d8311613d2b575b613d198183612967565b8101031261016c575051926003613ce8565b503d613d0f565b83513d6000823e3d90fd5b8489517fdc7a2515000000000000000000000000000000000000000000000000000000008152fd5b506080810151156130b4565b90809750613d8b92503d8811612e7257612e618183612967565b909538613099565b87513d6000823e3d90fd5b90613df2603960405180947f5061796f75742066726f6d204465666966612067616d652023000000000000006020830152613de28151809260208686019101612fd6565b8101036019810185520183612967565b565b9081600052600560205260ff60406000205416614ece57613e1482612ca8565b6007811015614eb85760038114159081614eac575b50614e82578160005260056020526040600020600160ff19825416179055604051907f2bdfe0040000000000000000000000000000000000000000000000000000000082526020826004816001600160a01b037f0000000000000000000000000000000000000000000000000000000000000000165afa9182156144e857600092614e61575b506040517f69e11cc50000000000000000000000000000000000000000000000000000000081527f00000000000000000000000000000000000000000000000000000000000000006004820152602481018490527f0000000000000000000000000000000000000000000000000000000000000000604482015291600090839060649082906001600160a01b03165afa9182156144e857600092614d31575b508260005260016020526001600160a01b0360406000205416604051916331070bc960e21b83526020836004816001600160a01b037f0000000000000000000000000000000000000000000000000000000000000000165afa9283156144e857600093614d10575b50604051630862026560e41b8152600481018690526001600160a01b038316602482015294602086806044810103816001600160a01b0388165afa9586156144e857600096614cef575b50604051957f975057e70000000000000000000000000000000000000000000000000000000087526020876004816001600160a01b0385165afa9687156144e857600097614cce575b506040517fd49031c00000000000000000000000000000000000000000000000000000000081526001600160a01b03828116600483015260248201849052909760209189916044918391165afa9687156144e857600097614c9a575b50604051957f313ce5670000000000000000000000000000000000000000000000000000000087526020876004816001600160a01b0386165afa9687156144e857600097614c66575b50604051631982d67960e01b81528560048201526020816024816001600160a01b0387165afa9081156144e857600091614c34575b50602089614130866155a7565b92614182603660405180967f536574746c696e67204465666966612067616d652023000000000000000000008783015261417281518092898686019101612fd6565b8101036016810187520185612967565b61420a6040516141918161294b565b600081526141f860405196879586957fa02f801c0000000000000000000000000000000000000000000000000000000087528c600488015281602488015260448701528d606487015260848601523060a486015261010060c4860152610104850190612ff9565b906003198483030160e4850152612ff9565b038160006001600160a01b0388165af19081156144e857600091614c02575b509360005b8251811015614ba8576142418184612ed7565b5161425060408201518c61571b565b8061431b575b610140600193927ff44ffe151def7bd57d653ffdd625b5cfff3e6992ad5b8eb1f021cdaca6599544926142d8604051809360c0908051151583526020810151151560208401526040810151604084015260608101516060840152816001600160a01b039182608082015116608086015260a081015160a0860152015116910152565b60e08201526001600160a01b037f00000000000000000000000000000000000000000000000000000000000000001661010082015233610120820152a10161422e565b60c082015190979291906001600160a01b03161561454d576040519263b7bad1b160e01b84528960048501526020846024816001600160a01b038b165afa9384156144e857600094614519575b5060405193614376856128aa565b8a85528960208601526040850152876060850152600060808501528160a085015261eeee8a036144fc575b61eeee8a036144f45788935b6001600160a01b0360c08401511694853b156104d75761018460009260a09261448b98604051998a9586947f9d740bfa0000000000000000000000000000000000000000000000000000000086526001600160a01b03815116600487015260208101516024870152604081015160448701526060810151606487015260808101516084870152015160a485019060c0908051151583526020810151151560208401526040810151604084015260608101516060840152816001600160a01b039182608082015116608086015260a081015160a0860152015116910152565b5af19182156144e8576144cd8a610140936001977ff44ffe151def7bd57d653ffdd625b5cfff3e6992ad5b8eb1f021cdaca6599544966144d9575b505b612ea7565b99925092935050614256565b6144e2906128fe565b386144c6565b6040513d6000823e3d90fd5b6000936143ad565b614514896001600160a01b0360c0850151168c61528d565b6143a1565b9093506020813d602011614545575b8161453560209383612967565b810103126104d757519238614368565b3d9150614528565b6060810180519193911561497c5760208401511561463e57519060405163b7bad1b160e01b81528a60048201526020816024816001600160a01b038c165afa9283156144e8578a938c8b8f946000936145fe575b50600198946144cd9488947ff44ffe151def7bd57d653ffdd625b5cfff3e6992ad5b8eb1f021cdaca65995449961014099956145e76145e26144c8976155a7565b613d9e565b93604051956145f58761294b565b60008752615019565b98945050505092506020853d602011614636575b8161461f60209383612967565b810103126104d757935189928c918c8b60016145a1565b3d9150614612565b9290925160405163b7bad1b160e01b81528a60048201526020816024816001600160a01b038c165afa9182156144e8578b91600093614945575b5060808401516001600160a01b03168d8b8215614914576001600160a01b0392955b60206146f46146af6145e28b511515956155a7565b94604051986146bd8a61294b565b60008a52604051978880948193630862026560e41b83528c600484019092916001600160a01b036020916040840195845216910152565b0392165afa9384156144e8576000946148f3575b506001600160a01b038416156148c9578f6040519063b7bad1b160e01b825260048201526020816024816001600160a01b0389165afa9081156144e857600091614897575b500361486d576001600160a01b038f948f936020976141f86147e19261eeee8a0361485b575b61eeee8a036148535787965b866040519d8e9c8d9b8c997f1ebc263f000000000000000000000000000000000000000000000000000000008b5260048b015260248a015260448901521660648701526000608487015260a486015261010060c4860152610104850190612ff9565b0393165af19081156144e8578991614826575b507ff44ffe151def7bd57d653ffdd625b5cfff3e6992ad5b8eb1f021cdaca6599544916144cd61014092600196612ea7565b60208092503d831161484c575b61483d8183612967565b810103126104d75787386147f4565b503d614833565b60009661477f565b61486888878b168c61528d565b614773565b60046040517fb9725924000000000000000000000000000000000000000000000000000000008152fd5b90506020813d6020116148c1575b816148b260209383612967565b810103126104d757513861474d565b3d91506148a5565b60046040517ffba10dd6000000000000000000000000000000000000000000000000000000008152fd5b61490d91945060203d602011610514576105068183612967565b9238614708565b6001600160a01b0392507f00000000000000000000000000000000000000000000000000000000000000009561469a565b915091506020813d602011614974575b8161496260209383612967565b810103126104d7578a90519138614678565b3d9150614955565b5091878961eeee8103614ad657505060808101516001600160a01b03168015614aa6575b884710614a6257600080808b6001600160a01b038295165af16149c16154db565b50156149f8576101407ff44ffe151def7bd57d653ffdd625b5cfff3e6992ad5b8eb1f021cdaca6599544916144cd8a600196612ea7565b608460405162461bcd60e51b815260206004820152603a60248201527f416464726573733a20756e61626c6520746f2073656e642076616c75652c207260448201527f6563697069656e74206d617920686176652072657665727465640000000000006064820152fd5b606460405162461bcd60e51b815260206004820152601d60248201527f416464726573733a20696e73756666696369656e742062616c616e63650000006044820152fd5b506001600160a01b037f0000000000000000000000000000000000000000000000000000000000000000166149a0565b916144cd826001966144c8610140957ff44ffe151def7bd57d653ffdd625b5cfff3e6992ad5b8eb1f021cdaca6599544976001600160a01b03608088015116801515600014614b7e57614b79905b6040517fa9059cbb0000000000000000000000000000000000000000000000000000000060208201526001600160a01b039091166024820152604481019390935282606481015b03601f198101845283612967565b6153e9565b50614b797f0000000000000000000000000000000000000000000000000000000000000000614b24565b5097505050929190613df2949160405194614bc28661294b565b6000865260405194614bd38661288e565b600386527f506f7400000000000000000000000000000000000000000000000000000000006020870152615019565b90506020813d602011614c2c575b81614c1d60209383612967565b810103126104d7575138614229565b3d9150614c10565b90506020813d602011614c5e575b81614c4f60209383612967565b810103126104d7575138614123565b3d9150614c42565b9096506020813d602011614c92575b81614c8260209383612967565b810103126104d7575195386140ee565b3d9150614c75565b9096506020813d602011614cc6575b81614cb660209383612967565b810103126104d7575195386140a5565b3d9150614ca9565b614ce891975060203d602011610514576105068183612967565b9538614049565b614d0991965060203d602011610514576105068183612967565b9438614000565b614d2a91935060203d602011610514576105068183612967565b9138613fb6565b9091503d806000833e614d448183612967565b60208282810103126104d757815167ffffffffffffffff81116104d757820190808301601f830112156104d757815190614d7d826129ed565b93614d8b6040519586612967565b8285526020850193828201602060e08602830101116104d7579360208501945b602060e086028201018610614dc7575050505050509038613f4e565b60e08685850103126104d757604051614ddf816128c6565b614de887612ad4565b8152614df660208801612ad4565b60208201526040870151604082015260608088015190820152608080880151906001600160a01b03821682036104d75782015260a0808801519082015260c080880151906001600160a01b03821682036104d757820152825260e09590950194602090910190614dab565b614e7b91925060203d602011610514576105068183612967565b9038613eaf565b60046040517f66954d0b000000000000000000000000000000000000000000000000000000008152fd5b60049150141538613e29565b634e487b7160e01b600052602160045260246000fd5b9050565b65ffffffffffff9182169082160391908211612e9157565b90815180825260208080930193019160005b828110614f0a575050505090565b835180516001600160a01b03908116875281840151168684015260408082015190870152606080820151908701526080808201519087015260a0908101519086015260c09094019392810192600101614efc565b906040810151604051927fa40bb9c7000000000000000000000000000000000000000000000000000000008452600484015260248301526103a09182816044816001600160a01b037f0000000000000000000000000000000000000000000000000000000000000000165afa9283156144e857600093614ff9575b50505190519060018201809211612e915703614ff457600090565b600190565b615010929350803d10612e7257612e618183612967565b50903880614fd9565b60408051630862026560e41b8152600481018490526001600160a01b0385166024820152969790969095602095929492939290918681806044810103816001600160a01b03809a165afa9081156151bf579086916000916151f3575b50169485156151ca5788519163b7bad1b160e01b835216958660048301528082602481895afa9081156151bf57600091615193575b5090500361516a5761eeee8414801561515a575b60009015615154575081905b833b156104d75761513860009661512689519a8b98899788967f0cf8e85800000000000000000000000000000000000000000000000000000000885260048801526024870152604486015260a0606486015260a4850190612ff9565b90600319848303016084850152612ff9565b03925af1908115612dee575061514b5750565b613df2906128fe565b906150ca565b61516583858761528d565b6150be565b600486517fb9725924000000000000000000000000000000000000000000000000000000008152fd5b82813d83116151b8575b6151a78183612967565b8101031261016c57505180386150aa565b503d61519d565b89513d6000823e3d90fd5b600489517ffba10dd6000000000000000000000000000000000000000000000000000000008152fd5b61520a9150883d8a11610514576105068183612967565b38615075565b90600091805161522c575b6020015161522557565b9060021790565b6001925061521b565b6001600160a01b0360005416330361524957565b606460405162461bcd60e51b815260206004820152602060248201527f4f776e61626c653a2063616c6c6572206973206e6f7420746865206f776e65726044820152fd5b9190918115801561535b575b156152f1576040517f095ea7b30000000000000000000000000000000000000000000000000000000060208201526001600160a01b0390931660248401526044830191909152613df29190614b798260648101614b6b565b608460405162461bcd60e51b815260206004820152603660248201527f5361666545524332303a20617070726f76652066726f6d206e6f6e2d7a65726f60448201527f20746f206e6f6e2d7a65726f20616c6c6f77616e6365000000000000000000006064820152fd5b506040517fdd62ed3e0000000000000000000000000000000000000000000000000000000081523060048201526020816044816001600160a01b03808916602483015286165afa9081156144e8576000916153b8575b5015615299565b906020823d82116153e1575b816153d160209383612967565b8101031261016c575051386153b1565b3d91506153c4565b604051615447916001600160a01b03166154028261288e565b6000806020958685527f5361666545524332303a206c6f772d6c6576656c2063616c6c206661696c656487860152868151910182855af16154416154db565b9161550b565b80518061545357505050565b818391810103126104d757816154699101612ad4565b156154715750565b6084906040519062461bcd60e51b82526004820152602a60248201527f5361666545524332303a204552433230206f7065726174696f6e20646964206e60448201527f6f742073756363656564000000000000000000000000000000000000000000006064820152fd5b3d15615506573d906154ec8261298a565b916154fa6040519384612967565b82523d6000602084013e565b606090565b9192901561556c575081511561551f575090565b3b156155285790565b606460405162461bcd60e51b815260206004820152601d60248201527f416464726573733a2063616c6c20746f206e6f6e2d636f6e74726163740000006044820152fd5b82519091501561557f5750805190602001fd5b6155a39060405191829162461bcd60e51b8352602060048401526024830190612ff9565b0390fd5b806000917a184f03e93ff9f4daa797ed6e38ed64bf6a1f0100000000000000008082101561570d575b506d04ee2d6d415b85acef8100000000808310156156fe575b50662386f26fc10000808310156156ef575b506305f5e100808310156156e0575b50612710808310156156d1575b5060648210156156c1575b600a809210156156b7575b60019081602181860195601f1961565c6156468961298a565b986156546040519a8b612967565b808a5261298a565b01366020890137860101905b615674575b5050505090565b600019849101917f30313233343536373839616263646566000000000000000000000000000000008282061a8353049182156156b257919082615668565b61566d565b916001019161562d565b9190606460029104910191615622565b60049193920491019138615617565b6008919392049101913861560a565b601091939204910191386155fb565b602091939204910191386155e9565b6040935081049150386155d0565b9190600019818409818402918280831092039180830392146157b357633b9aca00908183101561577c577f88f2cfb83100cb4e69e7c79c58b316e597157d372fb9787e8e47ce423a2e9c6d94950990828211900360f71b910360091c170290565b60448383604051917f773cc18c00000000000000000000000000000000000000000000000000000000835260048301526024820152fd5b5050633b9aca009004915056fea26469706673582212201f07f8fb92365c388c08881d9201827cca6a3fb73dc56f3c982740205fc5828c64736f6c63430008140033",
    "linkReferences": {}
  },
  "methodIdentifiers": {
    "ballkidzProjectId()": "0d75b3aa",
    "changeFee(uint256)": "6a1db1bf",
    "claimProtocolProjectToken()": "ca449a25",
    "controller()": "f77c4791",
    "currentGamePhaseOf(uint256)": "0715610a",
    "currentGamePotOf(uint256)": "3af76f34",
    "delegateCodeOrigin()": "06b552b5",
    "delegatesRegistry()": "d574ff04",
    "feeDivisor()": "9a36f932",
    "fulfillCommitmentsOf(uint256)": "b6674cde",
    "governor()": "0c340a24",
    "hasFulfilledCommitments(uint256)": "850976b2",
    "launchGameWith((string,(string,uint256),string,string,(string,uint80,uint16,address,bytes32,bool)[],address,uint24,uint24,uint48,(bool,bool,uint256,uint256,address,uint256,address)[],address,address,uint256,uint256,address,address,address,address))": "63bf482e",
    "nextPhaseNeedsQueueing(uint256)": "81312a14",
    "onERC721Received(address,address,uint256,bytes)": "150b7a02",
    "owner()": "8da5cb5b",
    "protocolFeeProjectTokenAccount()": "3f3090d9",
    "queueNextPhaseOf(uint256)": "1c069dbb",
    "renounceOwnership()": "715018a6",
    "splitGroup()": "859bb4b2",
    "timesFor(uint256)": "b07925d3",
    "tokenOf(uint256)": "ea78803f",
    "tokenUriResolver()": "e131fc0c",
    "transferOwnership(address)": "f2fde38b"
  },
  "id": 1
}